{
  "address": "0xF21aAf8Ba0746292bbf6fB07830Ac951fB33172a",
  "abi": [
    {
      "inputs": [],
      "name": "AccountCreationFailed",
      "type": "error"
    },
    {
      "anonymous": false,
      "inputs": [
        {
          "indexed": false,
          "internalType": "address",
          "name": "account",
          "type": "address"
        },
        {
          "indexed": true,
          "internalType": "address",
          "name": "implementation",
          "type": "address"
        },
        {
          "indexed": false,
          "internalType": "uint256",
          "name": "chainId",
          "type": "uint256"
        },
        {
          "indexed": true,
          "internalType": "address",
          "name": "tokenContract",
          "type": "address"
        },
        {
          "indexed": true,
          "internalType": "uint256",
          "name": "tokenId",
          "type": "uint256"
        },
        {
          "indexed": false,
          "internalType": "uint256",
          "name": "salt",
          "type": "uint256"
        }
      ],
      "name": "AccountCreated",
      "type": "event"
    },
    {
      "inputs": [
        {
          "internalType": "address",
          "name": "implementation",
          "type": "address"
        },
        {
          "internalType": "uint256",
          "name": "chainId",
          "type": "uint256"
        },
        {
          "internalType": "address",
          "name": "tokenContract",
          "type": "address"
        },
        {
          "internalType": "uint256",
          "name": "tokenId",
          "type": "uint256"
        },
        {
          "internalType": "uint256",
          "name": "salt",
          "type": "uint256"
        }
      ],
      "name": "account",
      "outputs": [
        {
          "internalType": "address",
          "name": "",
          "type": "address"
        }
      ],
      "stateMutability": "view",
      "type": "function"
    },
    {
      "inputs": [
        {
          "internalType": "address",
          "name": "implementation",
          "type": "address"
        },
        {
          "internalType": "uint256",
          "name": "chainId",
          "type": "uint256"
        },
        {
          "internalType": "address",
          "name": "tokenContract",
          "type": "address"
        },
        {
          "internalType": "uint256",
          "name": "tokenId",
          "type": "uint256"
        },
        {
          "internalType": "uint256",
          "name": "salt",
          "type": "uint256"
        },
        {
          "internalType": "bytes",
          "name": "initData",
          "type": "bytes"
        }
      ],
      "name": "createAccount",
      "outputs": [
        {
          "internalType": "address",
          "name": "",
          "type": "address"
        }
      ],
      "stateMutability": "nonpayable",
      "type": "function"
    }
  ],
  "transactionHash": "0x2248633e1756752b4cfe8034b1f831ad1503da477b67d6de57fd53c417a684a7",
  "args": [],
  "numDeployments": 1,
  "solcInputHash": "06acef36bd8ade8728cd7a12e2122cc9",
  "bytecode": "0x608060405234801561001057600080fd5b5061082c806100206000396000f3fe608060405234801561001057600080fd5b50600436106100365760003560e01c80635e9bc5361461003b578063da7323b31461006b575b600080fd5b610055600480360381019061005091906103cb565b61009b565b6040516100629190610455565b60405180910390f35b610085600480360381019061008091906104d5565b6100cd565b6040516100929190610455565b60405180910390f35b6000806100ab8787878787610299565b8051906020012090506100c18360001b826102ed565b91505095945050505050565b6000806100dd8989898989610299565b905060006100f58660001b83805190602001206102ed565b905060008173ffffffffffffffffffffffffffffffffffffffff163b1461012057809250505061028e565b868873ffffffffffffffffffffffffffffffffffffffff168b73ffffffffffffffffffffffffffffffffffffffff167f07fba7bba1191da7ee1155dcfa0030701c9c9a9cc34a93b991fc6fd0c9268d8f848d8b60405161018293929190610593565b60405180910390a4858251602084016000f59050600073ffffffffffffffffffffffffffffffffffffffff168173ffffffffffffffffffffffffffffffffffffffff16036101fc576040517f20188a5900000000000000000000000000000000000000000000000000000000815260040160405180910390fd5b60008585905014610288576000808273ffffffffffffffffffffffffffffffffffffffff168787604051610231929190610609565b6000604051808303816000865af19150503d806000811461026e576040519150601f19603f3d011682016040523d82523d6000602084013e610273565b606091505b50915091508161028557805160208201fd5b50505b80925050505b979650505050505050565b606085828686866040516020016102b39493929190610622565b6040516020818303038152906040526040516020016102d39291906107b8565b604051602081830303815290604052905095945050505050565b60006102fa838330610302565b905092915050565b6000604051836040820152846020820152828152600b810160ff815360558120925050509392505050565b600080fd5b600080fd5b600073ffffffffffffffffffffffffffffffffffffffff82169050919050565b600061036282610337565b9050919050565b61037281610357565b811461037d57600080fd5b50565b60008135905061038f81610369565b92915050565b6000819050919050565b6103a881610395565b81146103b357600080fd5b50565b6000813590506103c58161039f565b92915050565b600080600080600060a086880312156103e7576103e661032d565b5b60006103f588828901610380565b9550506020610406888289016103b6565b945050604061041788828901610380565b9350506060610428888289016103b6565b9250506080610439888289016103b6565b9150509295509295909350565b61044f81610357565b82525050565b600060208201905061046a6000830184610446565b92915050565b600080fd5b600080fd5b600080fd5b60008083601f84011261049557610494610470565b5b8235905067ffffffffffffffff8111156104b2576104b1610475565b5b6020830191508360018202830111156104ce576104cd61047a565b5b9250929050565b600080600080600080600060c0888a0312156104f4576104f361032d565b5b60006105028a828b01610380565b97505060206105138a828b016103b6565b96505060406105248a828b01610380565b95505060606105358a828b016103b6565b94505060806105468a828b016103b6565b93505060a088013567ffffffffffffffff81111561056757610566610332565b5b6105738a828b0161047f565b925092505092959891949750929550565b61058d81610395565b82525050565b60006060820190506105a86000830186610446565b6105b56020830185610584565b6105c26040830184610584565b949350505050565b600081905092915050565b82818337600083830152505050565b60006105f083856105ca565b93506105fd8385846105d5565b82840190509392505050565b60006106168284866105e4565b91508190509392505050565b60006080820190506106376000830187610584565b6106446020830186610584565b6106516040830185610446565b61065e6060830184610584565b95945050505050565b600081905092915050565b7f3d60ad80600a3d3981f3363d3d373d3d3d363d73000000000000000000000000600082015250565b60006106a8601483610667565b91506106b382610672565b601482019050919050565b60008160601b9050919050565b60006106d6826106be565b9050919050565b60006106e8826106cb565b9050919050565b6107006106fb82610357565b6106dd565b82525050565b7f5af43d82803e903d91602b57fd5bf30000000000000000000000000000000000600082015250565b600061073c600f83610667565b915061074782610706565b600f82019050919050565b600081519050919050565b60005b8381101561077b578082015181840152602081019050610760565b60008484015250505050565b600061079282610752565b61079c81856105ca565b93506107ac81856020860161075d565b80840191505092915050565b60006107c38261069b565b91506107cf82856106ef565b6014820191506107de8261072f565b91506107ea8284610787565b9150819050939250505056fea26469706673582212209d5bdf9ba9204eb6221d9ecc9fc67b6a0a720ea4ea0574f45807e30a44904c4264736f6c63430008180033",
  "devdoc": {
    "events": {
      "AccountCreated(address,address,uint256,address,uint256,uint256)": {
        "details": "The registry SHALL emit the AccountCreated event upon successful account creation"
      }
    },
    "kind": "dev",
    "methods": {
      "account(address,uint256,address,uint256,uint256)": {
        "details": "Returns the computed token bound account address for a non-fungible token",
        "returns": {
          "_0": "The computed address of the token bound account"
        }
      },
      "createAccount(address,uint256,address,uint256,uint256,bytes)": {
        "details": "Creates a token bound account for a non-fungible token. If account has already been created, returns the account address without calling create2. If initData is not empty and account has not yet been created, calls account with provided initData after creation. Emits AccountCreated event.",
        "returns": {
          "_0": "the address of the account"
        }
      }
    },
    "version": 1
  },
  "userdoc": {
    "kind": "user",
    "methods": {},
    "version": 1
  },
  "storageLayout": {
    "storage": [],
    "types": null
  }
}