{
  "address": "0x61fdf655eAcA6228b053D83B75C914d52868e7e6",
  "abi": [
    {
      "inputs": [
        {
          "internalType": "address",
          "name": "to",
          "type": "address"
        },
        {
          "internalType": "uint256",
          "name": "value",
          "type": "uint256"
        },
        {
          "internalType": "bytes",
          "name": "data",
          "type": "bytes"
        },
        {
          "internalType": "uint256",
          "name": "operation",
          "type": "uint256"
        }
      ],
      "name": "execute",
      "outputs": [
        {
          "internalType": "bytes",
          "name": "result",
          "type": "bytes"
        }
      ],
      "stateMutability": "payable",
      "type": "function"
    },
    {
      "inputs": [],
      "name": "getChainId",
      "outputs": [
        {
          "internalType": "uint256",
          "name": "",
          "type": "uint256"
        }
      ],
      "stateMutability": "view",
      "type": "function"
    },
    {
      "inputs": [
        {
          "internalType": "bytes32",
          "name": "hash",
          "type": "bytes32"
        },
        {
          "internalType": "bytes",
          "name": "signature",
          "type": "bytes"
        }
      ],
      "name": "isValidSignature",
      "outputs": [
        {
          "internalType": "bytes4",
          "name": "magicValue",
          "type": "bytes4"
        }
      ],
      "stateMutability": "view",
      "type": "function"
    },
    {
      "inputs": [
        {
          "internalType": "address",
          "name": "signer",
          "type": "address"
        },
        {
          "internalType": "bytes",
          "name": "",
          "type": "bytes"
        }
      ],
      "name": "isValidSigner",
      "outputs": [
        {
          "internalType": "bytes4",
          "name": "",
          "type": "bytes4"
        }
      ],
      "stateMutability": "view",
      "type": "function"
    },
    {
      "inputs": [],
      "name": "owner",
      "outputs": [
        {
          "internalType": "address",
          "name": "",
          "type": "address"
        }
      ],
      "stateMutability": "view",
      "type": "function"
    },
    {
      "inputs": [],
      "name": "state",
      "outputs": [
        {
          "internalType": "uint256",
          "name": "",
          "type": "uint256"
        }
      ],
      "stateMutability": "view",
      "type": "function"
    },
    {
      "inputs": [
        {
          "internalType": "bytes4",
          "name": "interfaceId",
          "type": "bytes4"
        }
      ],
      "name": "supportsInterface",
      "outputs": [
        {
          "internalType": "bool",
          "name": "",
          "type": "bool"
        }
      ],
      "stateMutability": "pure",
      "type": "function"
    },
    {
      "inputs": [],
      "name": "token",
      "outputs": [
        {
          "internalType": "uint256",
          "name": "",
          "type": "uint256"
        },
        {
          "internalType": "address",
          "name": "",
          "type": "address"
        },
        {
          "internalType": "uint256",
          "name": "",
          "type": "uint256"
        }
      ],
      "stateMutability": "view",
      "type": "function"
    },
    {
      "stateMutability": "payable",
      "type": "receive"
    }
  ],
  "transactionHash": "0x2edaf56533cefee8a97505157265e9e14faf59a3f77c8914fe966987877540bd",
  "args": [],
  "numDeployments": 1,
  "solcInputHash": "f0e4963a4df59bdc2ad5ffb4867cb8c5",
  "bytecode": "0x608060405234801561001057600080fd5b50611389806100206000396000f3fe60806040526004361061007f5760003560e01c806374420f4c1161004e57806374420f4c1461016d5780638da5cb5b1461019d578063c19d93fb146101c8578063fc0c546a146101f357610086565b806301ffc9a71461008b5780631626ba7e146100c85780633408e47014610105578063523e32601461013057610086565b3661008657005b600080fd5b34801561009757600080fd5b506100b260048036038101906100ad91906109d6565b610220565b6040516100bf9190610a1e565b60405180910390f35b3480156100d457600080fd5b506100ef60048036038101906100ea9190610bb5565b61035a565b6040516100fc9190610c20565b60405180910390f35b34801561011157600080fd5b5061011a610393565b6040516101279190610c54565b60405180910390f35b34801561013c57600080fd5b5061015760048036038101906101529190610d2d565b61039b565b6040516101649190610c20565b60405180910390f35b61018760048036038101906101829190610db9565b6103c9565b6040516101949190610ec0565b60405180910390f35b3480156101a957600080fd5b506101b26104f7565b6040516101bf9190610ef1565b60405180910390f35b3480156101d457600080fd5b506101dd6105a1565b6040516101ea9190610c54565b60405180910390f35b3480156101ff57600080fd5b506102086105a7565b60405161021793929190610f0c565b60405180910390f35b60007f01ffc9a7000000000000000000000000000000000000000000000000000000007bffffffffffffffffffffffffffffffffffffffffffffffffffffffff1916827bffffffffffffffffffffffffffffffffffffffffffffffffffffffff191614806102eb57507f6faff5f1000000000000000000000000000000000000000000000000000000007bffffffffffffffffffffffffffffffffffffffffffffffffffffffff1916827bffffffffffffffffffffffffffffffffffffffffffffffffffffffff1916145b8061035357507f74420f4c000000000000000000000000000000000000000000000000000000007bffffffffffffffffffffffffffffffffffffffffffffffffffffffff1916827bffffffffffffffffffffffffffffffffffffffffffffffffffffffff1916145b9050919050565b60008061036f6103686104f7565b8585610627565b9050801561038757631626ba7e60e01b91505061038d565b60009150505b92915050565b600046905090565b60006103a6846106b7565b156103ba5763523e326060e01b90506103c2565b600060e01b90505b9392505050565b60606103d4336106b7565b610413576040517f08c379a000000000000000000000000000000000000000000000000000000000815260040161040a90610fa0565b60405180910390fd5b60008214610456576040517f08c379a000000000000000000000000000000000000000000000000000000000815260040161044d90611032565b60405180910390fd5b600080815461046490611081565b9190508190555060008673ffffffffffffffffffffffffffffffffffffffff168686866040516104959291906110f9565b60006040518083038185875af1925050503d80600081146104d2576040519150601f19603f3d011682016040523d82523d6000602084013e6104d7565b606091505b508093508192505050806104ed57815160208301fd5b5095945050505050565b6000806000806105056105a7565b92509250925046831461051e576000935050505061059e565b8173ffffffffffffffffffffffffffffffffffffffff16636352211e826040518263ffffffff1660e01b81526004016105579190610c54565b602060405180830381865afa158015610574573d6000803e3d6000fd5b505050506040513d601f19601f820116820180604052508101906105989190611127565b93505050505b90565b60005481565b600080600080606067ffffffffffffffff8111156105c8576105c7610a8a565b5b6040519080825280601f01601f1916602001820160405280156105fa5781602001600182028036833780820191505090505b5090506060604d60208301303c8080602001905181019061061b91906111a7565b93509350935050909192565b600080600061063685856106f6565b50915091506000600381111561064f5761064e6111fa565b5b816003811115610662576106616111fa565b5b14801561069a57508573ffffffffffffffffffffffffffffffffffffffff168273ffffffffffffffffffffffffffffffffffffffff16145b806106ac57506106ab868686610752565b5b925050509392505050565b60006106c16104f7565b73ffffffffffffffffffffffffffffffffffffffff168273ffffffffffffffffffffffffffffffffffffffff16149050919050565b6000806000604184510361073b5760008060006020870151925060408701519150606087015160001a905061072d88828585610876565b95509550955050505061074b565b60006002855160001b9250925092505b9250925092565b60008060008573ffffffffffffffffffffffffffffffffffffffff168585604051602401610781929190611238565b604051602081830303815290604052631626ba7e60e01b6020820180517bffffffffffffffffffffffffffffffffffffffffffffffffffffffff83818316178352505050506040516107d39190611299565b600060405180830381855afa9150503d806000811461080e576040519150601f19603f3d011682016040523d82523d6000602084013e610813565b606091505b509150915081801561082757506020815110155b801561086b5750631626ba7e60e01b7bffffffffffffffffffffffffffffffffffffffffffffffffffffffff19168180602001905181019061086991906112c5565b145b925050509392505050565b60008060007f7fffffffffffffffffffffffffffffff5d576e7357a4501ddfe92f46681b20a08460001c11156108b6576000600385925092509250610960565b6000600188888888604051600081526020016040526040516108db949392919061130e565b6020604051602081039080840390855afa1580156108fd573d6000803e3d6000fd5b505050602060405103519050600073ffffffffffffffffffffffffffffffffffffffff168173ffffffffffffffffffffffffffffffffffffffff160361095157600060016000801b93509350935050610960565b8060008060001b935093509350505b9450945094915050565b6000604051905090565b600080fd5b600080fd5b60007fffffffff0000000000000000000000000000000000000000000000000000000082169050919050565b6109b38161097e565b81146109be57600080fd5b50565b6000813590506109d0816109aa565b92915050565b6000602082840312156109ec576109eb610974565b5b60006109fa848285016109c1565b91505092915050565b60008115159050919050565b610a1881610a03565b82525050565b6000602082019050610a336000830184610a0f565b92915050565b6000819050919050565b610a4c81610a39565b8114610a5757600080fd5b50565b600081359050610a6981610a43565b92915050565b600080fd5b600080fd5b6000601f19601f8301169050919050565b7f4e487b7100000000000000000000000000000000000000000000000000000000600052604160045260246000fd5b610ac282610a79565b810181811067ffffffffffffffff82111715610ae157610ae0610a8a565b5b80604052505050565b6000610af461096a565b9050610b008282610ab9565b919050565b600067ffffffffffffffff821115610b2057610b1f610a8a565b5b610b2982610a79565b9050602081019050919050565b82818337600083830152505050565b6000610b58610b5384610b05565b610aea565b905082815260208101848484011115610b7457610b73610a74565b5b610b7f848285610b36565b509392505050565b600082601f830112610b9c57610b9b610a6f565b5b8135610bac848260208601610b45565b91505092915050565b60008060408385031215610bcc57610bcb610974565b5b6000610bda85828601610a5a565b925050602083013567ffffffffffffffff811115610bfb57610bfa610979565b5b610c0785828601610b87565b9150509250929050565b610c1a8161097e565b82525050565b6000602082019050610c356000830184610c11565b92915050565b6000819050919050565b610c4e81610c3b565b82525050565b6000602082019050610c696000830184610c45565b92915050565b600073ffffffffffffffffffffffffffffffffffffffff82169050919050565b6000610c9a82610c6f565b9050919050565b610caa81610c8f565b8114610cb557600080fd5b50565b600081359050610cc781610ca1565b92915050565b600080fd5b600080fd5b60008083601f840112610ced57610cec610a6f565b5b8235905067ffffffffffffffff811115610d0a57610d09610ccd565b5b602083019150836001820283011115610d2657610d25610cd2565b5b9250929050565b600080600060408486031215610d4657610d45610974565b5b6000610d5486828701610cb8565b935050602084013567ffffffffffffffff811115610d7557610d74610979565b5b610d8186828701610cd7565b92509250509250925092565b610d9681610c3b565b8114610da157600080fd5b50565b600081359050610db381610d8d565b92915050565b600080600080600060808688031215610dd557610dd4610974565b5b6000610de388828901610cb8565b9550506020610df488828901610da4565b945050604086013567ffffffffffffffff811115610e1557610e14610979565b5b610e2188828901610cd7565b93509350506060610e3488828901610da4565b9150509295509295909350565b600081519050919050565b600082825260208201905092915050565b60005b83811015610e7b578082015181840152602081019050610e60565b60008484015250505050565b6000610e9282610e41565b610e9c8185610e4c565b9350610eac818560208601610e5d565b610eb581610a79565b840191505092915050565b60006020820190508181036000830152610eda8184610e87565b905092915050565b610eeb81610c8f565b82525050565b6000602082019050610f066000830184610ee2565b92915050565b6000606082019050610f216000830186610c45565b610f2e6020830185610ee2565b610f3b6040830184610c45565b949350505050565b600082825260208201905092915050565b7f496e76616c6964207369676e6572000000000000000000000000000000000000600082015250565b6000610f8a600e83610f43565b9150610f9582610f54565b602082019050919050565b60006020820190508181036000830152610fb981610f7d565b9050919050565b7f4f6e6c792063616c6c206f7065726174696f6e732061726520737570706f727460008201527f6564000000000000000000000000000000000000000000000000000000000000602082015250565b600061101c602283610f43565b915061102782610fc0565b604082019050919050565b6000602082019050818103600083015261104b8161100f565b9050919050565b7f4e487b7100000000000000000000000000000000000000000000000000000000600052601160045260246000fd5b600061108c82610c3b565b91507fffffffffffffffffffffffffffffffffffffffffffffffffffffffffffffffff82036110be576110bd611052565b5b600182019050919050565b600081905092915050565b60006110e083856110c9565b93506110ed838584610b36565b82840190509392505050565b60006111068284866110d4565b91508190509392505050565b60008151905061112181610ca1565b92915050565b60006020828403121561113d5761113c610974565b5b600061114b84828501611112565b91505092915050565b60008151905061116381610d8d565b92915050565b600061117482610c6f565b9050919050565b61118481611169565b811461118f57600080fd5b50565b6000815190506111a18161117b565b92915050565b6000806000606084860312156111c0576111bf610974565b5b60006111ce86828701611154565b93505060206111df86828701611192565b92505060406111f086828701611154565b9150509250925092565b7f4e487b7100000000000000000000000000000000000000000000000000000000600052602160045260246000fd5b61123281610a39565b82525050565b600060408201905061124d6000830185611229565b818103602083015261125f8184610e87565b90509392505050565b600061127382610e41565b61127d81856110c9565b935061128d818560208601610e5d565b80840191505092915050565b60006112a58284611268565b915081905092915050565b6000815190506112bf81610a43565b92915050565b6000602082840312156112db576112da610974565b5b60006112e9848285016112b0565b91505092915050565b600060ff82169050919050565b611308816112f2565b82525050565b60006080820190506113236000830187611229565b61133060208301866112ff565b61133d6040830185611229565b61134a6060830184611229565b9594505050505056fea2646970667358221220e81c3588f0259aa2cf82f166918b297662c0f1d12531ea53bbad6f6ca72dc74564736f6c63430008180033",
  "devdoc": {
    "kind": "dev",
    "methods": {
      "execute(address,uint256,bytes,uint256)": {
        "details": "Executes a low-level operation if the caller is a valid signer on the account Reverts and bubbles up error if operation fails",
        "params": {
          "data": "The encoded operation calldata",
          "operation": "A value indicating the type of operation to perform Accounts implementing this interface MUST accept the following operation parameter values: - 0 = CALL - 1 = DELEGATECALL - 2 = CREATE - 3 = CREATE2 Accounts implementing this interface MAY support additional operations or restrict a signer's ability to execute certain operations",
          "to": "The target address of the operation",
          "value": "The Ether value to be sent to the target"
        },
        "returns": {
          "result": "The result of the operation"
        }
      },
      "isValidSignature(bytes32,bytes)": {
        "details": "Should return whether the signature provided is valid for the provided data",
        "params": {
          "hash": "Hash of the data to be signed",
          "signature": "Signature byte array associated with _data"
        }
      },
      "supportsInterface(bytes4)": {
        "details": "Returns true if this contract implements the interface defined by `interfaceId`. See the corresponding https://eips.ethereum.org/EIPS/eip-165#how-interfaces-are-identified[EIP section] to learn more about how these ids are created. This function call must use less than 30 000 gas."
      },
      "token()": {
        "details": "Returns the identifier of the non-fungible token which owns the account The return value of this function MUST be constant - it MUST NOT change over time",
        "returns": {
          "_0": "      The EIP-155 ID of the chain the token exists on",
          "_1": "The contract address of the token",
          "_2": "      The ID of the token"
        }
      }
    },
    "stateVariables": {
      "state": {
        "details": "Returns a value that SHOULD be modified each time the account changes state",
        "return": "The current account state",
        "returns": {
          "_0": "The current account state"
        }
      }
    },
    "version": 1
  },
  "userdoc": {
    "kind": "user",
    "methods": {},
    "version": 1
  },
  "storageLayout": {
    "storage": [
      {
        "astId": 609,
        "contract": "contracts/ERC6551/Account-ERC721.sol:ERC6551AccountERC721",
        "label": "state",
        "offset": 0,
        "slot": "0",
        "type": "t_uint256"
      }
    ],
    "types": {
      "t_uint256": {
        "encoding": "inplace",
        "label": "uint256",
        "numberOfBytes": "32"
      }
    }
  }
}