{
  "address": "0x01BCC002c0f6EF7327231fC909afdcf886596EE8",
  "abi": [
    {
      "inputs": [
        {
          "internalType": "address",
          "name": "to",
          "type": "address"
        },
        {
          "internalType": "uint256",
          "name": "value",
          "type": "uint256"
        },
        {
          "internalType": "bytes",
          "name": "data",
          "type": "bytes"
        },
        {
          "internalType": "uint256",
          "name": "operation",
          "type": "uint256"
        }
      ],
      "name": "execute",
      "outputs": [
        {
          "internalType": "bytes",
          "name": "result",
          "type": "bytes"
        }
      ],
      "stateMutability": "payable",
      "type": "function"
    },
    {
      "inputs": [],
      "name": "getChainId",
      "outputs": [
        {
          "internalType": "uint256",
          "name": "",
          "type": "uint256"
        }
      ],
      "stateMutability": "view",
      "type": "function"
    },
    {
      "inputs": [
        {
          "internalType": "bytes32",
          "name": "hash",
          "type": "bytes32"
        },
        {
          "internalType": "bytes",
          "name": "signature",
          "type": "bytes"
        }
      ],
      "name": "isValidSignature",
      "outputs": [
        {
          "internalType": "bytes4",
          "name": "magicValue",
          "type": "bytes4"
        }
      ],
      "stateMutability": "view",
      "type": "function"
    },
    {
      "inputs": [
        {
          "internalType": "address",
          "name": "signer",
          "type": "address"
        },
        {
          "internalType": "bytes",
          "name": "",
          "type": "bytes"
        }
      ],
      "name": "isValidSigner",
      "outputs": [
        {
          "internalType": "bytes4",
          "name": "",
          "type": "bytes4"
        }
      ],
      "stateMutability": "view",
      "type": "function"
    },
    {
      "inputs": [],
      "name": "owner",
      "outputs": [
        {
          "internalType": "address",
          "name": "",
          "type": "address"
        }
      ],
      "stateMutability": "view",
      "type": "function"
    },
    {
      "inputs": [],
      "name": "state",
      "outputs": [
        {
          "internalType": "uint256",
          "name": "",
          "type": "uint256"
        }
      ],
      "stateMutability": "view",
      "type": "function"
    },
    {
      "inputs": [
        {
          "internalType": "bytes4",
          "name": "interfaceId",
          "type": "bytes4"
        }
      ],
      "name": "supportsInterface",
      "outputs": [
        {
          "internalType": "bool",
          "name": "",
          "type": "bool"
        }
      ],
      "stateMutability": "pure",
      "type": "function"
    },
    {
      "inputs": [],
      "name": "token",
      "outputs": [
        {
          "internalType": "uint256",
          "name": "",
          "type": "uint256"
        },
        {
          "internalType": "address",
          "name": "",
          "type": "address"
        },
        {
          "internalType": "uint256",
          "name": "",
          "type": "uint256"
        }
      ],
      "stateMutability": "view",
      "type": "function"
    },
    {
      "stateMutability": "payable",
      "type": "receive"
    }
  ],
  "transactionHash": "0xa491f12b6c112308874bb52bb0d3a9c503428ab67b1532e41209aaf617bc0b1c",
  "args": [],
  "numDeployments": 1,
  "solcInputHash": "3c2334697e8dc0e0aa214b4c471d8d95",
  "bytecode": "0x608060405234801561001057600080fd5b5061147b806100206000396000f3fe60806040526004361061007f5760003560e01c806374420f4c1161004e57806374420f4c1461016d5780638da5cb5b1461019d578063c19d93fb146101c8578063fc0c546a146101f357610086565b806301ffc9a71461008b5780631626ba7e146100c85780633408e47014610105578063523e32601461013057610086565b3661008657005b600080fd5b34801561009757600080fd5b506100b260048036038101906100ad9190610ab4565b610220565b6040516100bf9190610afc565b60405180910390f35b3480156100d457600080fd5b506100ef60048036038101906100ea9190610c93565b61035a565b6040516100fc9190610cfe565b60405180910390f35b34801561011157600080fd5b5061011a6103d1565b6040516101279190610d32565b60405180910390f35b34801561013c57600080fd5b5061015760048036038101906101529190610e0b565b6103d9565b6040516101649190610cfe565b60405180910390f35b61018760048036038101906101829190610e97565b610407565b6040516101949190610f9e565b60405180910390f35b3480156101a957600080fd5b506101b2610535565b6040516101bf9190610fcf565b60405180910390f35b3480156101d457600080fd5b506101dd610545565b6040516101ea9190610d32565b60405180910390f35b3480156101ff57600080fd5b5061020861054b565b60405161021793929190610fea565b60405180910390f35b60007f01ffc9a7000000000000000000000000000000000000000000000000000000007bffffffffffffffffffffffffffffffffffffffffffffffffffffffff1916827bffffffffffffffffffffffffffffffffffffffffffffffffffffffff191614806102eb57507f6faff5f1000000000000000000000000000000000000000000000000000000007bffffffffffffffffffffffffffffffffffffffffffffffffffffffff1916827bffffffffffffffffffffffffffffffffffffffffffffffffffffffff1916145b8061035357507f74420f4c000000000000000000000000000000000000000000000000000000007bffffffffffffffffffffffffffffffffffffffffffffffffffffffff1916827bffffffffffffffffffffffffffffffffffffffffffffffffffffffff1916145b9050919050565b60008073ffffffffffffffffffffffffffffffffffffffff1661037c336105cb565b73ffffffffffffffffffffffffffffffffffffffff16036103a057600090506103cb565b60006103ad338585610704565b905080156103c557631626ba7e60e01b9150506103cb565b60009150505b92915050565b600046905090565b60006103e484610794565b156103f85763523e326060e01b9050610400565b600060e01b90505b9392505050565b606061041233610794565b610451576040517f08c379a00000000000000000000000000000000000000000000000000000000081526004016104489061107e565b60405180910390fd5b60008214610494576040517f08c379a000000000000000000000000000000000000000000000000000000000815260040161048b90611110565b60405180910390fd5b60008081546104a29061115f565b9190508190555060008673ffffffffffffffffffffffffffffffffffffffff168686866040516104d39291906111d7565b60006040518083038185875af1925050503d8060008114610510576040519150601f19603f3d011682016040523d82523d6000602084013e610515565b606091505b5080935081925050508061052b57815160208301fd5b5095945050505050565b6000610540336105cb565b905090565b60005481565b600080600080606067ffffffffffffffff81111561056c5761056b610b68565b5b6040519080825280601f01601f19166020018201604052801561059e5781602001600182028036833780820191505090505b5090506060604d60208301303c808060200190518101906105bf9190611243565b93509350935050909192565b6000806000806105d961054b565b9250925092504683146105f257600093505050506106ff565b8173ffffffffffffffffffffffffffffffffffffffff1663bd85b039826040518263ffffffff1660e01b815260040161062b9190610d32565b602060405180830381865afa158015610648573d6000803e3d6000fd5b505050506040513d601f19601f8201168201806040525081019061066c9190611296565b8273ffffffffffffffffffffffffffffffffffffffff1662fdd58e87846040518363ffffffff1660e01b81526004016106a69291906112c3565b602060405180830381865afa1580156106c3573d6000803e3d6000fd5b505050506040513d601f19601f820116820180604052508101906106e79190611296565b146106f857600093505050506106ff565b8493505050505b919050565b600080600061071385856107d4565b50915091506000600381111561072c5761072b6112ec565b5b81600381111561073f5761073e6112ec565b5b14801561077757508573ffffffffffffffffffffffffffffffffffffffff168273ffffffffffffffffffffffffffffffffffffffff16145b806107895750610788868686610830565b5b925050509392505050565b600061079f826105cb565b73ffffffffffffffffffffffffffffffffffffffff168273ffffffffffffffffffffffffffffffffffffffff16149050919050565b600080600060418451036108195760008060006020870151925060408701519150606087015160001a905061080b88828585610954565b955095509550505050610829565b60006002855160001b9250925092505b9250925092565b60008060008573ffffffffffffffffffffffffffffffffffffffff16858560405160240161085f92919061132a565b604051602081830303815290604052631626ba7e60e01b6020820180517bffffffffffffffffffffffffffffffffffffffffffffffffffffffff83818316178352505050506040516108b1919061138b565b600060405180830381855afa9150503d80600081146108ec576040519150601f19603f3d011682016040523d82523d6000602084013e6108f1565b606091505b509150915081801561090557506020815110155b80156109495750631626ba7e60e01b7bffffffffffffffffffffffffffffffffffffffffffffffffffffffff19168180602001905181019061094791906113b7565b145b925050509392505050565b60008060007f7fffffffffffffffffffffffffffffff5d576e7357a4501ddfe92f46681b20a08460001c1115610994576000600385925092509250610a3e565b6000600188888888604051600081526020016040526040516109b99493929190611400565b6020604051602081039080840390855afa1580156109db573d6000803e3d6000fd5b505050602060405103519050600073ffffffffffffffffffffffffffffffffffffffff168173ffffffffffffffffffffffffffffffffffffffff1603610a2f57600060016000801b93509350935050610a3e565b8060008060001b935093509350505b9450945094915050565b6000604051905090565b600080fd5b600080fd5b60007fffffffff0000000000000000000000000000000000000000000000000000000082169050919050565b610a9181610a5c565b8114610a9c57600080fd5b50565b600081359050610aae81610a88565b92915050565b600060208284031215610aca57610ac9610a52565b5b6000610ad884828501610a9f565b91505092915050565b60008115159050919050565b610af681610ae1565b82525050565b6000602082019050610b116000830184610aed565b92915050565b6000819050919050565b610b2a81610b17565b8114610b3557600080fd5b50565b600081359050610b4781610b21565b92915050565b600080fd5b600080fd5b6000601f19601f8301169050919050565b7f4e487b7100000000000000000000000000000000000000000000000000000000600052604160045260246000fd5b610ba082610b57565b810181811067ffffffffffffffff82111715610bbf57610bbe610b68565b5b80604052505050565b6000610bd2610a48565b9050610bde8282610b97565b919050565b600067ffffffffffffffff821115610bfe57610bfd610b68565b5b610c0782610b57565b9050602081019050919050565b82818337600083830152505050565b6000610c36610c3184610be3565b610bc8565b905082815260208101848484011115610c5257610c51610b52565b5b610c5d848285610c14565b509392505050565b600082601f830112610c7a57610c79610b4d565b5b8135610c8a848260208601610c23565b91505092915050565b60008060408385031215610caa57610ca9610a52565b5b6000610cb885828601610b38565b925050602083013567ffffffffffffffff811115610cd957610cd8610a57565b5b610ce585828601610c65565b9150509250929050565b610cf881610a5c565b82525050565b6000602082019050610d136000830184610cef565b92915050565b6000819050919050565b610d2c81610d19565b82525050565b6000602082019050610d476000830184610d23565b92915050565b600073ffffffffffffffffffffffffffffffffffffffff82169050919050565b6000610d7882610d4d565b9050919050565b610d8881610d6d565b8114610d9357600080fd5b50565b600081359050610da581610d7f565b92915050565b600080fd5b600080fd5b60008083601f840112610dcb57610dca610b4d565b5b8235905067ffffffffffffffff811115610de857610de7610dab565b5b602083019150836001820283011115610e0457610e03610db0565b5b9250929050565b600080600060408486031215610e2457610e23610a52565b5b6000610e3286828701610d96565b935050602084013567ffffffffffffffff811115610e5357610e52610a57565b5b610e5f86828701610db5565b92509250509250925092565b610e7481610d19565b8114610e7f57600080fd5b50565b600081359050610e9181610e6b565b92915050565b600080600080600060808688031215610eb357610eb2610a52565b5b6000610ec188828901610d96565b9550506020610ed288828901610e82565b945050604086013567ffffffffffffffff811115610ef357610ef2610a57565b5b610eff88828901610db5565b93509350506060610f1288828901610e82565b9150509295509295909350565b600081519050919050565b600082825260208201905092915050565b60005b83811015610f59578082015181840152602081019050610f3e565b60008484015250505050565b6000610f7082610f1f565b610f7a8185610f2a565b9350610f8a818560208601610f3b565b610f9381610b57565b840191505092915050565b60006020820190508181036000830152610fb88184610f65565b905092915050565b610fc981610d6d565b82525050565b6000602082019050610fe46000830184610fc0565b92915050565b6000606082019050610fff6000830186610d23565b61100c6020830185610fc0565b6110196040830184610d23565b949350505050565b600082825260208201905092915050565b7f496e76616c6964207369676e6572000000000000000000000000000000000000600082015250565b6000611068600e83611021565b915061107382611032565b602082019050919050565b600060208201905081810360008301526110978161105b565b9050919050565b7f4f6e6c792063616c6c206f7065726174696f6e732061726520737570706f727460008201527f6564000000000000000000000000000000000000000000000000000000000000602082015250565b60006110fa602283611021565b91506111058261109e565b604082019050919050565b60006020820190508181036000830152611129816110ed565b9050919050565b7f4e487b7100000000000000000000000000000000000000000000000000000000600052601160045260246000fd5b600061116a82610d19565b91507fffffffffffffffffffffffffffffffffffffffffffffffffffffffffffffffff820361119c5761119b611130565b5b600182019050919050565b600081905092915050565b60006111be83856111a7565b93506111cb838584610c14565b82840190509392505050565b60006111e48284866111b2565b91508190509392505050565b6000815190506111ff81610e6b565b92915050565b600061121082610d4d565b9050919050565b61122081611205565b811461122b57600080fd5b50565b60008151905061123d81611217565b92915050565b60008060006060848603121561125c5761125b610a52565b5b600061126a868287016111f0565b935050602061127b8682870161122e565b925050604061128c868287016111f0565b9150509250925092565b6000602082840312156112ac576112ab610a52565b5b60006112ba848285016111f0565b91505092915050565b60006040820190506112d86000830185610fc0565b6112e56020830184610d23565b9392505050565b7f4e487b7100000000000000000000000000000000000000000000000000000000600052602160045260246000fd5b61132481610b17565b82525050565b600060408201905061133f600083018561131b565b81810360208301526113518184610f65565b90509392505050565b600061136582610f1f565b61136f81856111a7565b935061137f818560208601610f3b565b80840191505092915050565b6000611397828461135a565b915081905092915050565b6000815190506113b181610b21565b92915050565b6000602082840312156113cd576113cc610a52565b5b60006113db848285016113a2565b91505092915050565b600060ff82169050919050565b6113fa816113e4565b82525050565b6000608082019050611415600083018761131b565b61142260208301866113f1565b61142f604083018561131b565b61143c606083018461131b565b9594505050505056fea264697066735822122091a1e04b74dc7ff392a15e24bfcc32f51ea63171a63fe6e59205a4c3456c459064736f6c63430008180033",
  "devdoc": {
    "kind": "dev",
    "methods": {
      "execute(address,uint256,bytes,uint256)": {
        "details": "Executes a low-level operation if the caller is a valid signer on the account Reverts and bubbles up error if operation fails",
        "params": {
          "data": "The encoded operation calldata",
          "operation": "A value indicating the type of operation to perform Accounts implementing this interface MUST accept the following operation parameter values: - 0 = CALL - 1 = DELEGATECALL - 2 = CREATE - 3 = CREATE2 Accounts implementing this interface MAY support additional operations or restrict a signer's ability to execute certain operations",
          "to": "The target address of the operation",
          "value": "The Ether value to be sent to the target"
        },
        "returns": {
          "result": "The result of the operation"
        }
      },
      "isValidSignature(bytes32,bytes)": {
        "details": "Should return whether the signature provided is valid for the provided data",
        "params": {
          "hash": "Hash of the data to be signed",
          "signature": "Signature byte array associated with _data"
        }
      },
      "supportsInterface(bytes4)": {
        "details": "Returns true if this contract implements the interface defined by `interfaceId`. See the corresponding https://eips.ethereum.org/EIPS/eip-165#how-interfaces-are-identified[EIP section] to learn more about how these ids are created. This function call must use less than 30 000 gas."
      },
      "token()": {
        "details": "Returns the identifier of the non-fungible token which owns the account The return value of this function MUST be constant - it MUST NOT change over time",
        "returns": {
          "_0": "      The EIP-155 ID of the chain the token exists on",
          "_1": "The contract address of the token",
          "_2": "      The ID of the token"
        }
      }
    },
    "stateVariables": {
      "state": {
        "details": "Returns a value that SHOULD be modified each time the account changes state",
        "return": "The current account state",
        "returns": {
          "_0": "The current account state"
        }
      }
    },
    "version": 1
  },
  "userdoc": {
    "kind": "user",
    "methods": {},
    "version": 1
  },
  "storageLayout": {
    "storage": [
      {
        "astId": 3435,
        "contract": "contracts/ERC6551/Account-ERC1155.sol:ERC6551AccountERC1155",
        "label": "state",
        "offset": 0,
        "slot": "0",
        "type": "t_uint256"
      }
    ],
    "types": {
      "t_uint256": {
        "encoding": "inplace",
        "label": "uint256",
        "numberOfBytes": "32"
      }
    }
  }
}